S011000074656C6567726170682E7372656357
S11300000C9436000C945E000C945E000C945E001C
S11300100C945E000C945E000C945E000C945E00E4
S11300200C945E000C945E000C945E000C945E00D4
S11300300C945E000C945E000C945E000C945E00C4
S11300400C945E000C945E000C945E000C945E00B4
S11300500C945E000C945E000C945E000C945E00A4
S11300600C945E000C945E00F101030211241FBE87
S1130070CFEFD4E0DEBFCDBF11E0A0E0B1E0E8EE09
S1130080FBE002C005900D92A033B107D9F721E03F
S1130090A0E3B1E001C01D92A734B207E1F710E07C
S11300A0C5E3D0E004C02197FE010E949A03C43343
S11300B0D107C9F70E94A1010C94E7050C94000034
S11300C01092C50087E68093C400E0ECF0E08081E4
S11300D08D7F808386E08093C20088E18093C10095
S11300E008959091C00095FFFCCF8093C6000895B9
S11300F0CF93C0E06C2F70E080913A0190913B0166
S11301006817790750F486E391E00E944203FC01EA
S113011080810E947100CF5FEDCF8AE0CF910C9473
S11301207100009741F0EFE9FFE03197F1F700C06B
S113013000000197F6CF0895009731F025E02A9545
S1130140F1F700000197F8CF089586B182FB882764
S113015080F991E089270895419A0E94910041987D
S113016008951F93CF93DF9300D000D000D0CDB774
S1130170DEB7182F20913A0130913B018091400164
S1130180909141012817390798F041E050E066E367
S113019071E0CE0101960E945403BE016F5F7F4F50
S11301A086E391E00E949202CE0101960E940F0222
S11301B0612F86E391E00E94EE0226960FB6F89432
S11301C0DEBF0FBECDBFDF91CF911F9108956CE3C9
S11301D071E086E391E00E943103811109C060E37C
S11301E071E086E391E00E943103811103C0089518
S11301F081E0089582E0089583E085B984E088B9B8
S113020080E88BB908958CE185B984E088B91BB87E
S1130210089515B884E388B988E08BB9089515B8B2
S113022084E088B980E78BB90895CF93DF93EC011C
S11302300E94FC00CE010E949C000E940F01CE018E
S11302400E949C000E940901CE010E949C000E9411
S11302500301CE01DF91CF910C949C0015B884E08A
S113026088B91BB80895CF93DF93C0E1D7E2CE01DC
S11302700E941501C456D109C83B8BE0D807B9F7D1
S1130280DF91CF910895CF93DF930E943301C8EE9D
S1130290D3E080EA9FE00E9415012197D1F7DF9116
S11302A0CF910C942E01CF93DF93EC010E94FC00BC
S11302B0CE010E949C000E940301CE010E949C007A
S11302C00E940901CE010E949C000E940F01CE01F0
S11302D0DF91CF910C949C00CF93DF9384EF91E056
S11302E00E949100CAE088E290E00E94AC0088E29B
S11302F090E00E949100C150B1F7C0E0D0E00E94AC
S1130300A500882329F080E197E20E945301F5CFEC
S11303100E942E01219681E090E00E949100C8394C
S11303208AE3D80760F3CAE088E290E00E94AC0058
S113033088E290E00E949100C150B1F7DF91CF9123
S113034008958FE384B98AE387B988EF8AB984E092
S113035088B90E9460000E94A5008823E1F30E94EE
S1130360A500811108C08EE20E94B10084E690E0ED
S11303700E94AC0028C08FE39CE90197F1F700C00C
S11303800000C0E0D0E00E94A5008823C9F08FE9F6
S11303909FE00197F1F700C000002196CD3291E073
S11303A0D90789F78FE50E94B1008CE291E00E94A1
S11303B0AC000E94A500CCE2D1E08111FACFE3CFDA
S11303C0CC32D14081F60E94E700813019F40E94BA
S11303D0430104C0823011F40E946C010E94780031
S11303E0BACF66E071E08CE391E00E947D0266E1A1
S11303F071E086E391E00E947D026FE171E080E3A9
S113040091E00C947D0280E391E00E940F0286E368
S113041091E00E940F028CE391E00C940F02FC0126
S1130420808191810C943504CF93DF93EC01888112
S11304309981009711F00E943504198218821D8257
S11304401C821B821A82DF91CF9108950F931F9310
S1130450CF93DF93EC018B016F5F7F4F888199818C
S11304600E94CD04009731F0998388831B830A830B
S113047081E001C080E0DF91CF911F910F91089539
S1130480CF93DF93EC0188819981892B29F08A81AC
S11304909B818617970760F4CE010E942602882369
S11304A041F08C819D81892B19F4E881F9811082B6
S11304B081E0DF91CF910895EF92FF920F931F9304
S11304C0CF93DF93EC017B018A01BA010E944002C1
S11304D0811104C0CE010E94140207C01D830C8345
S11304E0B701888199810E94A905CE01DF91CF913E
S11304F01F910F91FF90EF900895FC0111821082DB
S113050013821282158214826115710551F0FB0168
S113051001900020E9F73197AF01461B570B0C946B
S11305205C020895CF93DF93EC01FB0186179707D4
S113053061F0608171816115710529F044815581F3
S11305400E945C0202C00E941402CE01DF91CF918E
S11305500895CF93DF93EC016115710559F0FB0108
S113056001900020E9F73197AF01461B570B0E9419
S11305705C0202C00E941402CE01DF91CF91089563
S1130580EF92FF920F931F93CF93DF93FC0124818B
S113059035816115710511F480E019C041155105CB
S11305A0A9F07B01EC018A01020F131FB8010E941C
S11305B04002882389F3288139818C819D81B70188
S11305C0820F931F0E94A9051D830C8381E0DF9194
S11305D0CF911F910F91FF90EF900895CF93DF93E8
S11305E000D0CDB7DEB769831A8241E050E0BE0186
S11305F06F5F7F4F0E94C0020F900F90DF91CF91E9
S11306000895CF93DF93DC01ED91FC91EB01A88178
S1130610B981309711F01097C9F4109759F0EB0194
S11306202C813D81232B31F08C9190E09195819523
S1130630910914C0309781F0DC0114968D919C913E
S11306401597892B49F0808190E008C0BD01CF0146
S1130650DF91CF910C94A00580E090E0DF91CF91E1
S11306600895FC0144815581FB01248135814217A1
S1130670530729F40E94010321E0892B09F020E0AB
S1130680822F0895FC01248135816217730720F4B9
S113069080819181009729F41092420182E491E0D3
S11306A00895860F971F0895BF92CF92DF92EF921D
S11306B0FF920F931F93CF93DF937C016B018A0109
S11306C0E9012417350720F4812F8901C42FD82F7D
S11306D065E171E0C7010E947D02D60114968D91F7
S11306E09C91159708171907D0F48C179D0708F4E7
S11306F0EC01D601ED91FC911197EC0FFD1FB08038
S113070010824D915C91BA01600F711FC7010E9464
S1130710A902D601ED91FC91EC0FFD1FB082C70137
S1130720DF91CF911F910F91FF90EF90DF90CF90C9
S1130730BF900895EE0FFF1F0590F491E02D0994EA
S1130740CF93DF938230910510F482E090E0E09142
S11307504501F091460120E030E0C0E0D0E0309760
S113076011F14081518148175907C0F048175907C2
S113077061F482819381209719F09B838A832BC033
S1130780909346018093450126C02115310519F047
S11307904217530718F49A01BE01DF01EF010280EA
S11307A0F381E02DDCCF2115310509F1281B390B2C
S11307B02430310590F412968D919C911397611514
S11307C0710521F0FB019383828304C09093460159
S11307D080934501FD01329644C0FD01E20FF31FF1
S11307E081939193225031092D933C933AC02091E7
S11307F0430130914401232B41F4209102013091B3
S1130800030130934401209343012091000130916E
S113081001012115310541F42DB73EB74091040182
S113082050910501241B350BE0914301F0914401E3
S1130830E217F307A0F42E1B3F0B2817390778F0B3
S1130840AC014E5F5F4F2417350748F04E0F5F1F12
S113085050934401409343018193919302C0E0E09B
S1130860F0E0CF01DF91CF9108950F931F93CF93C1
S1130870DF93009709F48CC0FC0132971382128233
S113088000914501109146010115110581F4208163
S11308903181820F931F2091430130914401281725
S11308A0390779F5F0934401E093430171C0D8010D
S11308B040E050E0AE17BF0750F412962D913C91E2
S11308C01397AD012115310509F1D901F3CF9D012C
S11308D0DA013383228360817181860F971F821727
S11308E0930769F4EC0128813981260F371F2E5FA5
S11308F03F4F318320838A819B8193838283452B5D
S113090029F4F0934601E093450142C01396FC9309
S1130910EE931297ED01499159919E01240F351FD1
S1130920E217F30771F480819181840F951F029679
S113093011969C938E938281938113969C938E93AC
S11309401297E0E0F0E0D80112968D919C911397F4
S1130950009719F0F8018C01F6CF8D919C919801C4
S11309602E5F3F4F820F931F20914301309144012A
S11309702817390769F4309729F410924601109228
S1130980450102C013821282109344010093430173
S1130990DF91CF911F910F910895A0E0B0E0E3EDB6
S11309A0F4E00C94B405EC01009721F4CB010E940F
S11309B0A003B8C0FC01E60FF71F9C0122503109C7
S11309C0E217F30708F4ACC0D9010D911C911197FB
S11309D006171707B0F00530110508F49FC0C801C9
S11309E004978617970708F499C002501109061B4B
S11309F0170B019311936D937C93CF010E943504DF
S1130A008DC05B01A01AB10A4C01800E911EA09109
S1130A104501B091460140E050E0E12CF12C1097E3
S1130A2009F44AC0A815B905D1F56D907C901197C9
S1130A30630182E0C80ED11CCA14DB0480F1A30157
S1130A404A195B096A0182E0C80ED11C1296BC9057
S1130A5012971396AC91B5E0CB16D10440F0B28254
S1130A60A38351834083D9016D937C930AC00E5FA5
S1130A701F4FC301800F911FF90191838083EB2DD8
S1130A80FA2FE114F10431F0D7011396FC93EE939D
S1130A90129744C0F0934601E09345013FC08D9105
S1130AA09C9111974817590708F4AC017D011296DF
S1130AB00D90BC91A02DB3CF80914301909144013E
S1130AC088159905E1F446175707C8F48091000189
S1130AD090910101009741F48DB79EB740910401B4
S1130AE050910501841B950BE817F907C8F4F0939E
S1130AF04401E0934301F901718360830FC0CB018A
S1130B000E94A0037C01009759F0A801BE010E9435
S1130B109705CE010E943504C70104C0CE0102C06E
S1130B2080E090E0CDB7DEB7EEE00C94D005FB0199
S1130B30DC0102C001900D9241505040D8F7089555
S1130B40FB01DC018D91019080190110D9F3990BFF
S1130B500895FB01DC0101900D920020E1F7089556
S1130B602F923F924F925F926F927F928F929F92B9
S1130B70AF92BF92CF92DF92EF92FF920F931F93A7
S1130B80CF93DF93CDB7DEB7CA1BDB0B0FB6F89458
S1130B90DEBF0FBECDBF09942A88398848885F8498
S1130BA06E847D848C849B84AA84B984C884DF8009
S1130BB0EE80FD800C811B81AA81B981CE0FD11DED
S1130BC00FB6F894DEBF0FBECDBFED01089510E05F
S1130BD0C5E3D0E004C0FE010E949A032196C63307
S10B0BE0D107C9F7F894FFCF17
S1130BE80000470120002E2E2E5F2E5F5F2E2E5F01
S1130BF82E2E5F5F2E006E6E6E6E6E6E6E6E005FD2
S1130C085F5F2E5F2E2E5F5F2E5F5F2E2E5F0000CC
S9030000FC
